{
  "_format": "hh-sol-artifact-1",
  "contractName": "PraktikuyCertificate",
  "sourceName": "contracts/PraktikuyCertificate.sol",
  "abi": [
    {
      "inputs": [
        {
          "internalType": "address",
          "name": "initialOwner",
          "type": "address"
        }
      ],
      "stateMutability": "nonpayable",
      "type": "constructor"
    },
    {
      "inputs": [
        {
          "internalType": "address",
          "name": "sender",
          "type": "address"
        },
        {
          "internalType": "uint256",
          "name": "tokenId",
          "type": "uint256"
        },
        {
          "internalType": "address",
          "name": "owner",
          "type": "address"
        }
      ],
      "name": "ERC721IncorrectOwner",
      "type": "error"
    },
    {
      "inputs": [
        {
          "internalType": "address",
          "name": "operator",
          "type": "address"
        },
        {
          "internalType": "uint256",
          "name": "tokenId",
          "type": "uint256"
        }
      ],
      "name": "ERC721InsufficientApproval",
      "type": "error"
    },
    {
      "inputs": [
        {
          "internalType": "address",
          "name": "approver",
          "type": "address"
        }
      ],
      "name": "ERC721InvalidApprover",
      "type": "error"
    },
    {
      "inputs": [
        {
          "internalType": "address",
          "name": "operator",
          "type": "address"
        }
      ],
      "name": "ERC721InvalidOperator",
      "type": "error"
    },
    {
      "inputs": [
        {
          "internalType": "address",
          "name": "owner",
          "type": "address"
        }
      ],
      "name": "ERC721InvalidOwner",
      "type": "error"
    },
    {
      "inputs": [
        {
          "internalType": "address",
          "name": "receiver",
          "type": "address"
        }
      ],
      "name": "ERC721InvalidReceiver",
      "type": "error"
    },
    {
      "inputs": [
        {
          "internalType": "address",
          "name": "sender",
          "type": "address"
        }
      ],
      "name": "ERC721InvalidSender",
      "type": "error"
    },
    {
      "inputs": [
        {
          "internalType": "uint256",
          "name": "tokenId",
          "type": "uint256"
        }
      ],
      "name": "ERC721NonexistentToken",
      "type": "error"
    },
    {
      "inputs": [
        {
          "internalType": "address",
          "name": "owner",
          "type": "address"
        }
      ],
      "name": "OwnableInvalidOwner",
      "type": "error"
    },
    {
      "inputs": [
        {
          "internalType": "address",
          "name": "account",
          "type": "address"
        }
      ],
      "name": "OwnableUnauthorizedAccount",
      "type": "error"
    },
    {
      "anonymous": false,
      "inputs": [
        {
          "indexed": true,
          "internalType": "address",
          "name": "owner",
          "type": "address"
        },
        {
          "indexed": true,
          "internalType": "address",
          "name": "approved",
          "type": "address"
        },
        {
          "indexed": true,
          "internalType": "uint256",
          "name": "tokenId",
          "type": "uint256"
        }
      ],
      "name": "Approval",
      "type": "event"
    },
    {
      "anonymous": false,
      "inputs": [
        {
          "indexed": true,
          "internalType": "address",
          "name": "owner",
          "type": "address"
        },
        {
          "indexed": true,
          "internalType": "address",
          "name": "operator",
          "type": "address"
        },
        {
          "indexed": false,
          "internalType": "bool",
          "name": "approved",
          "type": "bool"
        }
      ],
      "name": "ApprovalForAll",
      "type": "event"
    },
    {
      "anonymous": false,
      "inputs": [
        {
          "indexed": false,
          "internalType": "uint256",
          "name": "_fromTokenId",
          "type": "uint256"
        },
        {
          "indexed": false,
          "internalType": "uint256",
          "name": "_toTokenId",
          "type": "uint256"
        }
      ],
      "name": "BatchMetadataUpdate",
      "type": "event"
    },
    {
      "anonymous": false,
      "inputs": [
        {
          "indexed": true,
          "internalType": "address",
          "name": "student",
          "type": "address"
        },
        {
          "indexed": true,
          "internalType": "uint256",
          "name": "tokenId",
          "type": "uint256"
        },
        {
          "indexed": false,
          "internalType": "string",
          "name": "tokenURI",
          "type": "string"
        }
      ],
      "name": "CertificateMinted",
      "type": "event"
    },
    {
      "anonymous": false,
      "inputs": [
        {
          "indexed": false,
          "internalType": "uint256",
          "name": "_tokenId",
          "type": "uint256"
        }
      ],
      "name": "MetadataUpdate",
      "type": "event"
    },
    {
      "anonymous": false,
      "inputs": [
        {
          "indexed": true,
          "internalType": "address",
          "name": "previousOwner",
          "type": "address"
        },
        {
          "indexed": true,
          "internalType": "address",
          "name": "newOwner",
          "type": "address"
        }
      ],
      "name": "OwnershipTransferred",
      "type": "event"
    },
    {
      "anonymous": false,
      "inputs": [
        {
          "indexed": true,
          "internalType": "address",
          "name": "from",
          "type": "address"
        },
        {
          "indexed": true,
          "internalType": "address",
          "name": "to",
          "type": "address"
        },
        {
          "indexed": true,
          "internalType": "uint256",
          "name": "tokenId",
          "type": "uint256"
        }
      ],
      "name": "Transfer",
      "type": "event"
    },
    {
      "inputs": [
        {
          "internalType": "address",
          "name": "to",
          "type": "address"
        },
        {
          "internalType": "uint256",
          "name": "tokenId",
          "type": "uint256"
        }
      ],
      "name": "approve",
      "outputs": [],
      "stateMutability": "nonpayable",
      "type": "function"
    },
    {
      "inputs": [
        {
          "internalType": "address",
          "name": "owner",
          "type": "address"
        }
      ],
      "name": "balanceOf",
      "outputs": [
        {
          "internalType": "uint256",
          "name": "",
          "type": "uint256"
        }
      ],
      "stateMutability": "view",
      "type": "function"
    },
    {
      "inputs": [
        {
          "internalType": "uint256",
          "name": "tokenId",
          "type": "uint256"
        }
      ],
      "name": "getApproved",
      "outputs": [
        {
          "internalType": "address",
          "name": "",
          "type": "address"
        }
      ],
      "stateMutability": "view",
      "type": "function"
    },
    {
      "inputs": [
        {
          "internalType": "address",
          "name": "owner",
          "type": "address"
        },
        {
          "internalType": "address",
          "name": "operator",
          "type": "address"
        }
      ],
      "name": "isApprovedForAll",
      "outputs": [
        {
          "internalType": "bool",
          "name": "",
          "type": "bool"
        }
      ],
      "stateMutability": "view",
      "type": "function"
    },
    {
      "inputs": [
        {
          "internalType": "address",
          "name": "student",
          "type": "address"
        },
        {
          "internalType": "string",
          "name": "uri",
          "type": "string"
        }
      ],
      "name": "mintCertificate",
      "outputs": [
        {
          "internalType": "uint256",
          "name": "",
          "type": "uint256"
        }
      ],
      "stateMutability": "nonpayable",
      "type": "function"
    },
    {
      "inputs": [],
      "name": "name",
      "outputs": [
        {
          "internalType": "string",
          "name": "",
          "type": "string"
        }
      ],
      "stateMutability": "view",
      "type": "function"
    },
    {
      "inputs": [],
      "name": "owner",
      "outputs": [
        {
          "internalType": "address",
          "name": "",
          "type": "address"
        }
      ],
      "stateMutability": "view",
      "type": "function"
    },
    {
      "inputs": [
        {
          "internalType": "uint256",
          "name": "tokenId",
          "type": "uint256"
        }
      ],
      "name": "ownerOf",
      "outputs": [
        {
          "internalType": "address",
          "name": "",
          "type": "address"
        }
      ],
      "stateMutability": "view",
      "type": "function"
    },
    {
      "inputs": [],
      "name": "renounceOwnership",
      "outputs": [],
      "stateMutability": "nonpayable",
      "type": "function"
    },
    {
      "inputs": [
        {
          "internalType": "address",
          "name": "from",
          "type": "address"
        },
        {
          "internalType": "address",
          "name": "to",
          "type": "address"
        },
        {
          "internalType": "uint256",
          "name": "tokenId",
          "type": "uint256"
        }
      ],
      "name": "safeTransferFrom",
      "outputs": [],
      "stateMutability": "nonpayable",
      "type": "function"
    },
    {
      "inputs": [
        {
          "internalType": "address",
          "name": "from",
          "type": "address"
        },
        {
          "internalType": "address",
          "name": "to",
          "type": "address"
        },
        {
          "internalType": "uint256",
          "name": "tokenId",
          "type": "uint256"
        },
        {
          "internalType": "bytes",
          "name": "data",
          "type": "bytes"
        }
      ],
      "name": "safeTransferFrom",
      "outputs": [],
      "stateMutability": "nonpayable",
      "type": "function"
    },
    {
      "inputs": [
        {
          "internalType": "address",
          "name": "operator",
          "type": "address"
        },
        {
          "internalType": "bool",
          "name": "approved",
          "type": "bool"
        }
      ],
      "name": "setApprovalForAll",
      "outputs": [],
      "stateMutability": "nonpayable",
      "type": "function"
    },
    {
      "inputs": [
        {
          "internalType": "bytes4",
          "name": "interfaceId",
          "type": "bytes4"
        }
      ],
      "name": "supportsInterface",
      "outputs": [
        {
          "internalType": "bool",
          "name": "",
          "type": "bool"
        }
      ],
      "stateMutability": "view",
      "type": "function"
    },
    {
      "inputs": [],
      "name": "symbol",
      "outputs": [
        {
          "internalType": "string",
          "name": "",
          "type": "string"
        }
      ],
      "stateMutability": "view",
      "type": "function"
    },
    {
      "inputs": [
        {
          "internalType": "uint256",
          "name": "tokenId",
          "type": "uint256"
        }
      ],
      "name": "tokenURI",
      "outputs": [
        {
          "internalType": "string",
          "name": "",
          "type": "string"
        }
      ],
      "stateMutability": "view",
      "type": "function"
    },
    {
      "inputs": [
        {
          "internalType": "address",
          "name": "from",
          "type": "address"
        },
        {
          "internalType": "address",
          "name": "to",
          "type": "address"
        },
        {
          "internalType": "uint256",
          "name": "tokenId",
          "type": "uint256"
        }
      ],
      "name": "transferFrom",
      "outputs": [],
      "stateMutability": "nonpayable",
      "type": "function"
    },
    {
      "inputs": [
        {
          "internalType": "address",
          "name": "newOwner",
          "type": "address"
        }
      ],
      "name": "transferOwnership",
      "outputs": [],
      "stateMutability": "nonpayable",
      "type": "function"
    }
  ],
  "bytecode": "0x608060405234801562000010575f80fd5b5060405162002c6838038062002c6883398181016040528101906200003691906200027c565b806040518060400160405280601481526020017f5072616b74696b757943657274696669636174650000000000000000000000008152506040518060400160405280600881526020017f50524b5443455254000000000000000000000000000000000000000000000000815250815f9081620000b3919062000510565b508060019081620000c5919062000510565b5050505f73ffffffffffffffffffffffffffffffffffffffff168173ffffffffffffffffffffffffffffffffffffffff16036200013b575f6040517f1e4fbdf700000000000000000000000000000000000000000000000000000000815260040162000132919062000605565b60405180910390fd5b6200014c816200015460201b60201c565b505062000620565b5f60075f9054906101000a900473ffffffffffffffffffffffffffffffffffffffff1690508160075f6101000a81548173ffffffffffffffffffffffffffffffffffffffff021916908373ffffffffffffffffffffffffffffffffffffffff1602179055508173ffffffffffffffffffffffffffffffffffffffff168173ffffffffffffffffffffffffffffffffffffffff167f8be0079c531659141344cd1fd0a4f28419497f9722a3daafe3b4186f6b6457e060405160405180910390a35050565b5f80fd5b5f73ffffffffffffffffffffffffffffffffffffffff82169050919050565b5f62000246826200021b565b9050919050565b62000258816200023a565b811462000263575f80fd5b50565b5f8151905062000276816200024d565b92915050565b5f6020828403121562000294576200029362000217565b5b5f620002a38482850162000266565b91505092915050565b5f81519050919050565b7f4e487b71000000000000000000000000000000000000000000000000000000005f52604160045260245ffd5b7f4e487b71000000000000000000000000000000000000000000000000000000005f52602260045260245ffd5b5f60028204905060018216806200032857607f821691505b6020821081036200033e576200033d620002e3565b5b50919050565b5f819050815f5260205f209050919050565b5f6020601f8301049050919050565b5f82821b905092915050565b5f60088302620003a27fffffffffffffffffffffffffffffffffffffffffffffffffffffffffffffffff8262000365565b620003ae868362000365565b95508019841693508086168417925050509392505050565b5f819050919050565b5f819050919050565b5f620003f8620003f2620003ec84620003c6565b620003cf565b620003c6565b9050919050565b5f819050919050565b6200041383620003d8565b6200042b6200042282620003ff565b84845462000371565b825550505050565b5f90565b6200044162000433565b6200044e81848462000408565b505050565b5b818110156200047557620004695f8262000437565b60018101905062000454565b5050565b601f821115620004c4576200048e8162000344565b620004998462000356565b81016020851015620004a9578190505b620004c1620004b88562000356565b83018262000453565b50505b505050565b5f82821c905092915050565b5f620004e65f1984600802620004c9565b1980831691505092915050565b5f620005008383620004d5565b9150826002028217905092915050565b6200051b82620002ac565b67ffffffffffffffff811115620005375762000536620002b6565b5b62000543825462000310565b6200055082828562000479565b5f60209050601f83116001811462000586575f841562000571578287015190505b6200057d8582620004f3565b865550620005ec565b601f198416620005968662000344565b5f5b82811015620005bf5784890151825560018201915060208501945060208101905062000598565b86831015620005df5784890151620005db601f891682620004d5565b8355505b6001600288020188555050505b505050505050565b620005ff816200023a565b82525050565b5f6020820190506200061a5f830184620005f4565b92915050565b61263a806200062e5f395ff3fe608060405234801561000f575f80fd5b5060043610610109575f3560e01c806370a08231116100a0578063a22cb4651161006f578063a22cb465146102b5578063b88d4fde146102d1578063c87b56dd146102ed578063e985e9c51461031d578063f2fde38b1461034d57610109565b806370a082311461023f578063715018a61461026f5780638da5cb5b1461027957806395d89b411461029757610109565b8063095ea7b3116100dc578063095ea7b3146101bb57806323b872dd146101d757806342842e0e146101f35780636352211e1461020f57610109565b806301ffc9a71461010d57806306fdde031461013d5780630712249f1461015b578063081812fc1461018b575b5f80fd5b61012760048036038101906101229190611af3565b610369565b6040516101349190611b38565b60405180910390f35b6101456103c9565b6040516101529190611bdb565b60405180910390f35b61017560048036038101906101709190611d81565b610458565b6040516101829190611df3565b60405180910390f35b6101a560048036038101906101a09190611e36565b6104e7565b6040516101b29190611e70565b60405180910390f35b6101d560048036038101906101d09190611e89565b610502565b005b6101f160048036038101906101ec9190611ec7565b610518565b005b61020d60048036038101906102089190611ec7565b610617565b005b61022960048036038101906102249190611e36565b610636565b6040516102369190611e70565b60405180910390f35b61025960048036038101906102549190611f17565b610647565b6040516102669190611df3565b60405180910390f35b6102776106fd565b005b610281610710565b60405161028e9190611e70565b60405180910390f35b61029f610738565b6040516102ac9190611bdb565b60405180910390f35b6102cf60048036038101906102ca9190611f6c565b6107c8565b005b6102eb60048036038101906102e69190612048565b6107de565b005b61030760048036038101906103029190611e36565b610803565b6040516103149190611bdb565b60405180910390f35b610337600480360381019061033291906120c8565b61087f565b6040516103449190611b38565b60405180910390f35b61036760048036038101906103629190611f17565b61090d565b005b5f634906490660e01b7bffffffffffffffffffffffffffffffffffffffffffffffffffffffff1916827bffffffffffffffffffffffffffffffffffffffffffffffffffffffff191614806103c257506103c182610991565b5b9050919050565b60605f80546103d790612133565b80601f016020809104026020016040519081016040528092919081815260200182805461040390612133565b801561044e5780601f106104255761010080835404028352916020019161044e565b820191905f5260205f20905b81548152906001019060200180831161043157829003601f168201915b5050505050905090565b5f610461610a72565b5f60085f81548092919061047490612190565b9190505590506104848482610af9565b61048e8184610bec565b808473ffffffffffffffffffffffffffffffffffffffff167fde5d6fd45e32fffb472bcbaeedf6a2e3944633c9701eec7d99adfa07ad6104c1856040516104d59190611bdb565b60405180910390a38091505092915050565b5f6104f182610c46565b506104fb82610ccc565b9050919050565b610514828261050f610d05565b610d0c565b5050565b5f73ffffffffffffffffffffffffffffffffffffffff168273ffffffffffffffffffffffffffffffffffffffff1603610588575f6040517f64a0ae9200000000000000000000000000000000000000000000000000000000815260040161057f9190611e70565b60405180910390fd5b5f61059b8383610596610d05565b610d1e565b90508373ffffffffffffffffffffffffffffffffffffffff168173ffffffffffffffffffffffffffffffffffffffff1614610611578382826040517f64283d7b000000000000000000000000000000000000000000000000000000008152600401610608939291906121d7565b60405180910390fd5b50505050565b61063183838360405180602001604052805f8152506107de565b505050565b5f61064082610c46565b9050919050565b5f8073ffffffffffffffffffffffffffffffffffffffff168273ffffffffffffffffffffffffffffffffffffffff16036106b8575f6040517f89c62b640000000000000000000000000000000000000000000000000000000081526004016106af9190611e70565b60405180910390fd5b60035f8373ffffffffffffffffffffffffffffffffffffffff1673ffffffffffffffffffffffffffffffffffffffff1681526020019081526020015f20549050919050565b610705610a72565b61070e5f610f29565b565b5f60075f9054906101000a900473ffffffffffffffffffffffffffffffffffffffff16905090565b60606001805461074790612133565b80601f016020809104026020016040519081016040528092919081815260200182805461077390612133565b80156107be5780601f10610795576101008083540402835291602001916107be565b820191905f5260205f20905b8154815290600101906020018083116107a157829003601f168201915b5050505050905090565b6107da6107d3610d05565b8383610fec565b5050565b6107e9848484610518565b6107fd6107f4610d05565b858585856111c5565b50505050565b606061080e82610c46565b505f610818611371565b90505f61082484611387565b90505f82510361083857809250505061087a565b5f8151111561086c578181604051602001610854929190612246565b6040516020818303038152906040529250505061087a565b61087584611428565b925050505b919050565b5f60055f8473ffffffffffffffffffffffffffffffffffffffff1673ffffffffffffffffffffffffffffffffffffffff1681526020019081526020015f205f8373ffffffffffffffffffffffffffffffffffffffff1673ffffffffffffffffffffffffffffffffffffffff1681526020019081526020015f205f9054906101000a900460ff16905092915050565b610915610a72565b5f73ffffffffffffffffffffffffffffffffffffffff168173ffffffffffffffffffffffffffffffffffffffff1603610985575f6040517f1e4fbdf700000000000000000000000000000000000000000000000000000000815260040161097c9190611e70565b60405180910390fd5b61098e81610f29565b50565b5f7f80ac58cd000000000000000000000000000000000000000000000000000000007bffffffffffffffffffffffffffffffffffffffffffffffffffffffff1916827bffffffffffffffffffffffffffffffffffffffffffffffffffffffff19161480610a5b57507f5b5e139f000000000000000000000000000000000000000000000000000000007bffffffffffffffffffffffffffffffffffffffffffffffffffffffff1916827bffffffffffffffffffffffffffffffffffffffffffffffffffffffff1916145b80610a6b5750610a6a8261148e565b5b9050919050565b610a7a610d05565b73ffffffffffffffffffffffffffffffffffffffff16610a98610710565b73ffffffffffffffffffffffffffffffffffffffff1614610af757610abb610d05565b6040517f118cdaa7000000000000000000000000000000000000000000000000000000008152600401610aee9190611e70565b60405180910390fd5b565b5f73ffffffffffffffffffffffffffffffffffffffff168273ffffffffffffffffffffffffffffffffffffffff1603610b69575f6040517f64a0ae92000000000000000000000000000000000000000000000000000000008152600401610b609190611e70565b60405180910390fd5b5f610b7583835f610d1e565b90505f73ffffffffffffffffffffffffffffffffffffffff168173ffffffffffffffffffffffffffffffffffffffff1614610be7575f6040517f73c6ac6e000000000000000000000000000000000000000000000000000000008152600401610bde9190611e70565b60405180910390fd5b505050565b8060065f8481526020019081526020015f209081610c0a9190612406565b507ff8e1a15aba9398e019f0b49df1a4fde98ee17ae345cb5f6b5e2c27f5033e8ce782604051610c3a9190611df3565b60405180910390a15050565b5f80610c51836114f7565b90505f73ffffffffffffffffffffffffffffffffffffffff168173ffffffffffffffffffffffffffffffffffffffff1603610cc357826040517f7e273289000000000000000000000000000000000000000000000000000000008152600401610cba9190611df3565b60405180910390fd5b80915050919050565b5f60045f8381526020019081526020015f205f9054906101000a900473ffffffffffffffffffffffffffffffffffffffff169050919050565b5f33905090565b610d198383836001611530565b505050565b5f80610d29846114f7565b90505f73ffffffffffffffffffffffffffffffffffffffff168373ffffffffffffffffffffffffffffffffffffffff1614610d6a57610d698184866116ef565b5b5f73ffffffffffffffffffffffffffffffffffffffff168173ffffffffffffffffffffffffffffffffffffffff1614610df557610da95f855f80611530565b600160035f8373ffffffffffffffffffffffffffffffffffffffff1673ffffffffffffffffffffffffffffffffffffffff1681526020019081526020015f205f82825403925050819055505b5f73ffffffffffffffffffffffffffffffffffffffff168573ffffffffffffffffffffffffffffffffffffffff1614610e7457600160035f8773ffffffffffffffffffffffffffffffffffffffff1673ffffffffffffffffffffffffffffffffffffffff1681526020019081526020015f205f82825401925050819055505b8460025f8681526020019081526020015f205f6101000a81548173ffffffffffffffffffffffffffffffffffffffff021916908373ffffffffffffffffffffffffffffffffffffffff160217905550838573ffffffffffffffffffffffffffffffffffffffff168273ffffffffffffffffffffffffffffffffffffffff167fddf252ad1be2c89b69c2b068fc378daa952ba7f163c4a11628f55a4df523b3ef60405160405180910390a4809150509392505050565b5f60075f9054906101000a900473ffffffffffffffffffffffffffffffffffffffff1690508160075f6101000a81548173ffffffffffffffffffffffffffffffffffffffff021916908373ffffffffffffffffffffffffffffffffffffffff1602179055508173ffffffffffffffffffffffffffffffffffffffff168173ffffffffffffffffffffffffffffffffffffffff167f8be0079c531659141344cd1fd0a4f28419497f9722a3daafe3b4186f6b6457e060405160405180910390a35050565b5f73ffffffffffffffffffffffffffffffffffffffff168373ffffffffffffffffffffffffffffffffffffffff160361105c575f6040517fa9fbf51f0000000000000000000000000000000000000000000000000000000081526004016110539190611e70565b60405180910390fd5b5f73ffffffffffffffffffffffffffffffffffffffff168273ffffffffffffffffffffffffffffffffffffffff16036110cc57816040517f5b08ba180000000000000000000000000000000000000000000000000000000081526004016110c39190611e70565b60405180910390fd5b8060055f8573ffffffffffffffffffffffffffffffffffffffff1673ffffffffffffffffffffffffffffffffffffffff1681526020019081526020015f205f8473ffffffffffffffffffffffffffffffffffffffff1673ffffffffffffffffffffffffffffffffffffffff1681526020019081526020015f205f6101000a81548160ff0219169083151502179055508173ffffffffffffffffffffffffffffffffffffffff168373ffffffffffffffffffffffffffffffffffffffff167f17307eab39ab6107e8899845ad3d59bd9653f200f220920489ca2b5937696c31836040516111b89190611b38565b60405180910390a3505050565b5f8373ffffffffffffffffffffffffffffffffffffffff163b111561136a578273ffffffffffffffffffffffffffffffffffffffff1663150b7a02868685856040518563ffffffff1660e01b81526004016112239493929190612527565b6020604051808303815f875af192505050801561125e57506040513d601f19601f8201168201806040525081019061125b9190612585565b60015b6112df573d805f811461128c576040519150601f19603f3d011682016040523d82523d5f602084013e611291565b606091505b505f8151036112d757836040517f64a0ae920000000000000000000000000000000000000000000000000000000081526004016112ce9190611e70565b60405180910390fd5b805160208201fd5b63150b7a0260e01b7bffffffffffffffffffffffffffffffffffffffffffffffffffffffff1916817bffffffffffffffffffffffffffffffffffffffffffffffffffffffff19161461136857836040517f64a0ae9200000000000000000000000000000000000000000000000000000000815260040161135f9190611e70565b60405180910390fd5b505b5050505050565b606060405180602001604052805f815250905090565b606060065f8381526020019081526020015f2080546113a590612133565b80601f01602080910402602001604051908101604052809291908181526020018280546113d190612133565b801561141c5780601f106113f35761010080835404028352916020019161141c565b820191905f5260205f20905b8154815290600101906020018083116113ff57829003601f168201915b50505050509050919050565b606061143382610c46565b505f61143d611371565b90505f81511161145b5760405180602001604052805f815250611486565b80611465846117b2565b604051602001611476929190612246565b6040516020818303038152906040525b915050919050565b5f7f01ffc9a7000000000000000000000000000000000000000000000000000000007bffffffffffffffffffffffffffffffffffffffffffffffffffffffff1916827bffffffffffffffffffffffffffffffffffffffffffffffffffffffff1916149050919050565b5f60025f8381526020019081526020015f205f9054906101000a900473ffffffffffffffffffffffffffffffffffffffff169050919050565b808061156857505f73ffffffffffffffffffffffffffffffffffffffff168273ffffffffffffffffffffffffffffffffffffffff1614155b1561169a575f61157784610c46565b90505f73ffffffffffffffffffffffffffffffffffffffff168373ffffffffffffffffffffffffffffffffffffffff16141580156115e157508273ffffffffffffffffffffffffffffffffffffffff168173ffffffffffffffffffffffffffffffffffffffff1614155b80156115f457506115f2818461087f565b155b1561163657826040517fa9fbf51f00000000000000000000000000000000000000000000000000000000815260040161162d9190611e70565b60405180910390fd5b811561169857838573ffffffffffffffffffffffffffffffffffffffff168273ffffffffffffffffffffffffffffffffffffffff167f8c5be1e5ebec7d5bd14f71427d1e84f3dd0314c0f7b2291e5b200ac8c7c3b92560405160405180910390a45b505b8360045f8581526020019081526020015f205f6101000a81548173ffffffffffffffffffffffffffffffffffffffff021916908373ffffffffffffffffffffffffffffffffffffffff16021790555050505050565b6116fa83838361187c565b6117ad575f73ffffffffffffffffffffffffffffffffffffffff168373ffffffffffffffffffffffffffffffffffffffff160361176e57806040517f7e2732890000000000000000000000000000000000000000000000000000000081526004016117659190611df3565b60405180910390fd5b81816040517f177e802f0000000000000000000000000000000000000000000000000000000081526004016117a49291906125b0565b60405180910390fd5b505050565b60605f60016117c08461193c565b0190505f8167ffffffffffffffff8111156117de576117dd611c5d565b5b6040519080825280601f01601f1916602001820160405280156118105781602001600182028036833780820191505090505b5090505f82602083010190505b600115611871578080600190039150507f3031323334353637383961626364656600000000000000000000000000000000600a86061a8153600a8581611866576118656125d7565b5b0494505f850361181d575b819350505050919050565b5f8073ffffffffffffffffffffffffffffffffffffffff168373ffffffffffffffffffffffffffffffffffffffff161415801561193357508273ffffffffffffffffffffffffffffffffffffffff168473ffffffffffffffffffffffffffffffffffffffff1614806118f457506118f3848461087f565b5b8061193257508273ffffffffffffffffffffffffffffffffffffffff1661191a83610ccc565b73ffffffffffffffffffffffffffffffffffffffff16145b5b90509392505050565b5f805f90507a184f03e93ff9f4daa797ed6e38ed64bf6a1f0100000000000000008310611998577a184f03e93ff9f4daa797ed6e38ed64bf6a1f010000000000000000838161198e5761198d6125d7565b5b0492506040810190505b6d04ee2d6d415b85acef810000000083106119d5576d04ee2d6d415b85acef810000000083816119cb576119ca6125d7565b5b0492506020810190505b662386f26fc100008310611a0457662386f26fc1000083816119fa576119f96125d7565b5b0492506010810190505b6305f5e1008310611a2d576305f5e1008381611a2357611a226125d7565b5b0492506008810190505b6127108310611a52576127108381611a4857611a476125d7565b5b0492506004810190505b60648310611a755760648381611a6b57611a6a6125d7565b5b0492506002810190505b600a8310611a84576001810190505b80915050919050565b5f604051905090565b5f80fd5b5f80fd5b5f7fffffffff0000000000000000000000000000000000000000000000000000000082169050919050565b611ad281611a9e565b8114611adc575f80fd5b50565b5f81359050611aed81611ac9565b92915050565b5f60208284031215611b0857611b07611a96565b5b5f611b1584828501611adf565b91505092915050565b5f8115159050919050565b611b3281611b1e565b82525050565b5f602082019050611b4b5f830184611b29565b92915050565b5f81519050919050565b5f82825260208201905092915050565b5f5b83811015611b88578082015181840152602081019050611b6d565b5f8484015250505050565b5f601f19601f8301169050919050565b5f611bad82611b51565b611bb78185611b5b565b9350611bc7818560208601611b6b565b611bd081611b93565b840191505092915050565b5f6020820190508181035f830152611bf38184611ba3565b905092915050565b5f73ffffffffffffffffffffffffffffffffffffffff82169050919050565b5f611c2482611bfb565b9050919050565b611c3481611c1a565b8114611c3e575f80fd5b50565b5f81359050611c4f81611c2b565b92915050565b5f80fd5b5f80fd5b7f4e487b71000000000000000000000000000000000000000000000000000000005f52604160045260245ffd5b611c9382611b93565b810181811067ffffffffffffffff82111715611cb257611cb1611c5d565b5b80604052505050565b5f611cc4611a8d565b9050611cd08282611c8a565b919050565b5f67ffffffffffffffff821115611cef57611cee611c5d565b5b611cf882611b93565b9050602081019050919050565b828183375f83830152505050565b5f611d25611d2084611cd5565b611cbb565b905082815260208101848484011115611d4157611d40611c59565b5b611d4c848285611d05565b509392505050565b5f82601f830112611d6857611d67611c55565b5b8135611d78848260208601611d13565b91505092915050565b5f8060408385031215611d9757611d96611a96565b5b5f611da485828601611c41565b925050602083013567ffffffffffffffff811115611dc557611dc4611a9a565b5b611dd185828601611d54565b9150509250929050565b5f819050919050565b611ded81611ddb565b82525050565b5f602082019050611e065f830184611de4565b92915050565b611e1581611ddb565b8114611e1f575f80fd5b50565b5f81359050611e3081611e0c565b92915050565b5f60208284031215611e4b57611e4a611a96565b5b5f611e5884828501611e22565b91505092915050565b611e6a81611c1a565b82525050565b5f602082019050611e835f830184611e61565b92915050565b5f8060408385031215611e9f57611e9e611a96565b5b5f611eac85828601611c41565b9250506020611ebd85828601611e22565b9150509250929050565b5f805f60608486031215611ede57611edd611a96565b5b5f611eeb86828701611c41565b9350506020611efc86828701611c41565b9250506040611f0d86828701611e22565b9150509250925092565b5f60208284031215611f2c57611f2b611a96565b5b5f611f3984828501611c41565b91505092915050565b611f4b81611b1e565b8114611f55575f80fd5b50565b5f81359050611f6681611f42565b92915050565b5f8060408385031215611f8257611f81611a96565b5b5f611f8f85828601611c41565b9250506020611fa085828601611f58565b9150509250929050565b5f67ffffffffffffffff821115611fc457611fc3611c5d565b5b611fcd82611b93565b9050602081019050919050565b5f611fec611fe784611faa565b611cbb565b90508281526020810184848401111561200857612007611c59565b5b612013848285611d05565b509392505050565b5f82601f83011261202f5761202e611c55565b5b813561203f848260208601611fda565b91505092915050565b5f805f80608085870312156120605761205f611a96565b5b5f61206d87828801611c41565b945050602061207e87828801611c41565b935050604061208f87828801611e22565b925050606085013567ffffffffffffffff8111156120b0576120af611a9a565b5b6120bc8782880161201b565b91505092959194509250565b5f80604083850312156120de576120dd611a96565b5b5f6120eb85828601611c41565b92505060206120fc85828601611c41565b9150509250929050565b7f4e487b71000000000000000000000000000000000000000000000000000000005f52602260045260245ffd5b5f600282049050600182168061214a57607f821691505b60208210810361215d5761215c612106565b5b50919050565b7f4e487b71000000000000000000000000000000000000000000000000000000005f52601160045260245ffd5b5f61219a82611ddb565b91507fffffffffffffffffffffffffffffffffffffffffffffffffffffffffffffffff82036121cc576121cb612163565b5b600182019050919050565b5f6060820190506121ea5f830186611e61565b6121f76020830185611de4565b6122046040830184611e61565b949350505050565b5f81905092915050565b5f61222082611b51565b61222a818561220c565b935061223a818560208601611b6b565b80840191505092915050565b5f6122518285612216565b915061225d8284612216565b91508190509392505050565b5f819050815f5260205f209050919050565b5f6020601f8301049050919050565b5f82821b905092915050565b5f600883026122c57fffffffffffffffffffffffffffffffffffffffffffffffffffffffffffffffff8261228a565b6122cf868361228a565b95508019841693508086168417925050509392505050565b5f819050919050565b5f61230a61230561230084611ddb565b6122e7565b611ddb565b9050919050565b5f819050919050565b612323836122f0565b61233761232f82612311565b848454612296565b825550505050565b5f90565b61234b61233f565b61235681848461231a565b505050565b5b818110156123795761236e5f82612343565b60018101905061235c565b5050565b601f8211156123be5761238f81612269565b6123988461227b565b810160208510156123a7578190505b6123bb6123b38561227b565b83018261235b565b50505b505050565b5f82821c905092915050565b5f6123de5f19846008026123c3565b1980831691505092915050565b5f6123f683836123cf565b9150826002028217905092915050565b61240f82611b51565b67ffffffffffffffff81111561242857612427611c5d565b5b6124328254612133565b61243d82828561237d565b5f60209050601f83116001811461246e575f841561245c578287015190505b61246685826123eb565b8655506124cd565b601f19841661247c86612269565b5f5b828110156124a35784890151825560018201915060208501945060208101905061247e565b868310156124c057848901516124bc601f8916826123cf565b8355505b6001600288020188555050505b505050505050565b5f81519050919050565b5f82825260208201905092915050565b5f6124f9826124d5565b61250381856124df565b9350612513818560208601611b6b565b61251c81611b93565b840191505092915050565b5f60808201905061253a5f830187611e61565b6125476020830186611e61565b6125546040830185611de4565b818103606083015261256681846124ef565b905095945050505050565b5f8151905061257f81611ac9565b92915050565b5f6020828403121561259a57612599611a96565b5b5f6125a784828501612571565b91505092915050565b5f6040820190506125c35f830185611e61565b6125d06020830184611de4565b9392505050565b7f4e487b71000000000000000000000000000000000000000000000000000000005f52601260045260245ffdfea2646970667358221220fd71eb181696070385f172d44da91e6a8da42a568b2ca82c801e74f1e446603d64736f6c63430008180033",
  "linkReferences": {},
  "deployedLinkReferences": {}
}