{
  "_format": "hh-sol-artifact-1",
  "contractName": "PraktikuyGrades",
  "sourceName": "contracts/PraktikuyGrades.sol",
  "abi": [
    {
      "inputs": [
        {
          "internalType": "address",
          "name": "initialOwner",
          "type": "address"
        }
      ],
      "stateMutability": "nonpayable",
      "type": "constructor"
    },
    {
      "inputs": [
        {
          "internalType": "address",
          "name": "owner",
          "type": "address"
        }
      ],
      "name": "OwnableInvalidOwner",
      "type": "error"
    },
    {
      "inputs": [
        {
          "internalType": "address",
          "name": "account",
          "type": "address"
        }
      ],
      "name": "OwnableUnauthorizedAccount",
      "type": "error"
    },
    {
      "anonymous": false,
      "inputs": [
        {
          "indexed": false,
          "internalType": "string",
          "name": "pengumpulanId",
          "type": "string"
        },
        {
          "indexed": true,
          "internalType": "address",
          "name": "student",
          "type": "address"
        },
        {
          "indexed": false,
          "internalType": "uint256",
          "name": "grade",
          "type": "uint256"
        },
        {
          "indexed": false,
          "internalType": "string",
          "name": "classId",
          "type": "string"
        }
      ],
      "name": "GradeRecorded",
      "type": "event"
    },
    {
      "anonymous": false,
      "inputs": [
        {
          "indexed": true,
          "internalType": "address",
          "name": "previousOwner",
          "type": "address"
        },
        {
          "indexed": true,
          "internalType": "address",
          "name": "newOwner",
          "type": "address"
        }
      ],
      "name": "OwnershipTransferred",
      "type": "event"
    },
    {
      "inputs": [
        {
          "internalType": "string",
          "name": "pengumpulanId",
          "type": "string"
        }
      ],
      "name": "getGrade",
      "outputs": [
        {
          "internalType": "address",
          "name": "",
          "type": "address"
        },
        {
          "internalType": "uint256",
          "name": "",
          "type": "uint256"
        },
        {
          "internalType": "string",
          "name": "",
          "type": "string"
        },
        {
          "internalType": "uint256",
          "name": "",
          "type": "uint256"
        }
      ],
      "stateMutability": "view",
      "type": "function"
    },
    {
      "inputs": [],
      "name": "owner",
      "outputs": [
        {
          "internalType": "address",
          "name": "",
          "type": "address"
        }
      ],
      "stateMutability": "view",
      "type": "function"
    },
    {
      "inputs": [
        {
          "internalType": "string",
          "name": "pengumpulanId",
          "type": "string"
        },
        {
          "internalType": "address",
          "name": "student",
          "type": "address"
        },
        {
          "internalType": "uint256",
          "name": "grade",
          "type": "uint256"
        },
        {
          "internalType": "string",
          "name": "classId",
          "type": "string"
        }
      ],
      "name": "recordGrade",
      "outputs": [],
      "stateMutability": "nonpayable",
      "type": "function"
    },
    {
      "inputs": [],
      "name": "renounceOwnership",
      "outputs": [],
      "stateMutability": "nonpayable",
      "type": "function"
    },
    {
      "inputs": [
        {
          "internalType": "address",
          "name": "newOwner",
          "type": "address"
        }
      ],
      "name": "transferOwnership",
      "outputs": [],
      "stateMutability": "nonpayable",
      "type": "function"
    }
  ],
  "bytecode": "0x608060405234801562000010575f80fd5b5060405162001146380380620011468339818101604052810190620000369190620001e9565b805f73ffffffffffffffffffffffffffffffffffffffff168173ffffffffffffffffffffffffffffffffffffffff1603620000aa575f6040517f1e4fbdf7000000000000000000000000000000000000000000000000000000008152600401620000a191906200022a565b60405180910390fd5b620000bb81620000c360201b60201c565b505062000245565b5f805f9054906101000a900473ffffffffffffffffffffffffffffffffffffffff169050815f806101000a81548173ffffffffffffffffffffffffffffffffffffffff021916908373ffffffffffffffffffffffffffffffffffffffff1602179055508173ffffffffffffffffffffffffffffffffffffffff168173ffffffffffffffffffffffffffffffffffffffff167f8be0079c531659141344cd1fd0a4f28419497f9722a3daafe3b4186f6b6457e060405160405180910390a35050565b5f80fd5b5f73ffffffffffffffffffffffffffffffffffffffff82169050919050565b5f620001b38262000188565b9050919050565b620001c581620001a7565b8114620001d0575f80fd5b50565b5f81519050620001e381620001ba565b92915050565b5f6020828403121562000201576200020062000184565b5b5f6200021084828501620001d3565b91505092915050565b6200022481620001a7565b82525050565b5f6020820190506200023f5f83018462000219565b92915050565b610ef380620002535f395ff3fe608060405234801561000f575f80fd5b5060043610610055575f3560e01c80634c6639b714610059578063715018a6146100755780638da5cb5b1461007f578063d4f4d1141461009d578063f2fde38b146100d0575b5f80fd5b610073600480360381019061006e9190610862565b6100ec565b005b61007d6102a8565b005b6100876102bb565b604051610094919061090d565b60405180910390f35b6100b760048036038101906100b29190610926565b6102e2565b6040516100c794939291906109f6565b60405180910390f35b6100ea60048036038101906100e59190610a40565b6104b5565b005b6100f4610539565b6001846040516101049190610aa5565b90815260200160405180910390206004015f9054906101000a900460ff1615610162576040517f08c379a000000000000000000000000000000000000000000000000000000000815260040161015990610b2b565b60405180910390fd5b6040518060a001604052808473ffffffffffffffffffffffffffffffffffffffff168152602001838152602001828152602001428152602001600115158152506001856040516101b29190610aa5565b90815260200160405180910390205f820151815f015f6101000a81548173ffffffffffffffffffffffffffffffffffffffff021916908373ffffffffffffffffffffffffffffffffffffffff1602179055506020820151816001015560408201518160020190816102239190610d43565b50606082015181600301556080820151816004015f6101000a81548160ff0219169083151502179055509050508273ffffffffffffffffffffffffffffffffffffffff167f40ba6e46d0335b5082c0e48bd1990e3edd51462c51bbe51f4f7ff70a1b9e267c85848460405161029a93929190610e12565b60405180910390a250505050565b6102b0610539565b6102b95f6105c0565b565b5f805f9054906101000a900473ffffffffffffffffffffffffffffffffffffffff16905090565b5f8060605f6001856040516102f79190610aa5565b90815260200160405180910390206004015f9054906101000a900460ff16610354576040517f08c379a000000000000000000000000000000000000000000000000000000000815260040161034b90610e9f565b60405180910390fd5b5f6001866040516103659190610aa5565b90815260200160405180910390206040518060a00160405290815f82015f9054906101000a900473ffffffffffffffffffffffffffffffffffffffff1673ffffffffffffffffffffffffffffffffffffffff1673ffffffffffffffffffffffffffffffffffffffff168152602001600182015481526020016002820180546103ec90610b76565b80601f016020809104026020016040519081016040528092919081815260200182805461041890610b76565b80156104635780601f1061043a57610100808354040283529160200191610463565b820191905f5260205f20905b81548152906001019060200180831161044657829003601f168201915b5050505050815260200160038201548152602001600482015f9054906101000a900460ff1615151515815250509050805f01518160200151826040015183606001519450945094509450509193509193565b6104bd610539565b5f73ffffffffffffffffffffffffffffffffffffffff168173ffffffffffffffffffffffffffffffffffffffff160361052d575f6040517f1e4fbdf7000000000000000000000000000000000000000000000000000000008152600401610524919061090d565b60405180910390fd5b610536816105c0565b50565b610541610681565b73ffffffffffffffffffffffffffffffffffffffff1661055f6102bb565b73ffffffffffffffffffffffffffffffffffffffff16146105be57610582610681565b6040517f118cdaa70000000000000000000000000000000000000000000000000000000081526004016105b5919061090d565b60405180910390fd5b565b5f805f9054906101000a900473ffffffffffffffffffffffffffffffffffffffff169050815f806101000a81548173ffffffffffffffffffffffffffffffffffffffff021916908373ffffffffffffffffffffffffffffffffffffffff1602179055508173ffffffffffffffffffffffffffffffffffffffff168173ffffffffffffffffffffffffffffffffffffffff167f8be0079c531659141344cd1fd0a4f28419497f9722a3daafe3b4186f6b6457e060405160405180910390a35050565b5f33905090565b5f604051905090565b5f80fd5b5f80fd5b5f80fd5b5f80fd5b5f601f19601f8301169050919050565b7f4e487b71000000000000000000000000000000000000000000000000000000005f52604160045260245ffd5b6106e7826106a1565b810181811067ffffffffffffffff82111715610706576107056106b1565b5b80604052505050565b5f610718610688565b905061072482826106de565b919050565b5f67ffffffffffffffff821115610743576107426106b1565b5b61074c826106a1565b9050602081019050919050565b828183375f83830152505050565b5f61077961077484610729565b61070f565b9050828152602081018484840111156107955761079461069d565b5b6107a0848285610759565b509392505050565b5f82601f8301126107bc576107bb610699565b5b81356107cc848260208601610767565b91505092915050565b5f73ffffffffffffffffffffffffffffffffffffffff82169050919050565b5f6107fe826107d5565b9050919050565b61080e816107f4565b8114610818575f80fd5b50565b5f8135905061082981610805565b92915050565b5f819050919050565b6108418161082f565b811461084b575f80fd5b50565b5f8135905061085c81610838565b92915050565b5f805f806080858703121561087a57610879610691565b5b5f85013567ffffffffffffffff81111561089757610896610695565b5b6108a3878288016107a8565b94505060206108b48782880161081b565b93505060406108c58782880161084e565b925050606085013567ffffffffffffffff8111156108e6576108e5610695565b5b6108f2878288016107a8565b91505092959194509250565b610907816107f4565b82525050565b5f6020820190506109205f8301846108fe565b92915050565b5f6020828403121561093b5761093a610691565b5b5f82013567ffffffffffffffff81111561095857610957610695565b5b610964848285016107a8565b91505092915050565b6109768161082f565b82525050565b5f81519050919050565b5f82825260208201905092915050565b5f5b838110156109b3578082015181840152602081019050610998565b5f8484015250505050565b5f6109c88261097c565b6109d28185610986565b93506109e2818560208601610996565b6109eb816106a1565b840191505092915050565b5f608082019050610a095f8301876108fe565b610a16602083018661096d565b8181036040830152610a2881856109be565b9050610a37606083018461096d565b95945050505050565b5f60208284031215610a5557610a54610691565b5b5f610a628482850161081b565b91505092915050565b5f81905092915050565b5f610a7f8261097c565b610a898185610a6b565b9350610a99818560208601610996565b80840191505092915050565b5f610ab08284610a75565b915081905092915050565b7f477261646520666f722074686973207375626d697373696f6e20616c726561645f8201527f79207265636f7264656400000000000000000000000000000000000000000000602082015250565b5f610b15602a83610986565b9150610b2082610abb565b604082019050919050565b5f6020820190508181035f830152610b4281610b09565b9050919050565b7f4e487b71000000000000000000000000000000000000000000000000000000005f52602260045260245ffd5b5f6002820490506001821680610b8d57607f821691505b602082108103610ba057610b9f610b49565b5b50919050565b5f819050815f5260205f209050919050565b5f6020601f8301049050919050565b5f82821b905092915050565b5f60088302610c027fffffffffffffffffffffffffffffffffffffffffffffffffffffffffffffffff82610bc7565b610c0c8683610bc7565b95508019841693508086168417925050509392505050565b5f819050919050565b5f610c47610c42610c3d8461082f565b610c24565b61082f565b9050919050565b5f819050919050565b610c6083610c2d565b610c74610c6c82610c4e565b848454610bd3565b825550505050565b5f90565b610c88610c7c565b610c93818484610c57565b505050565b5b81811015610cb657610cab5f82610c80565b600181019050610c99565b5050565b601f821115610cfb57610ccc81610ba6565b610cd584610bb8565b81016020851015610ce4578190505b610cf8610cf085610bb8565b830182610c98565b50505b505050565b5f82821c905092915050565b5f610d1b5f1984600802610d00565b1980831691505092915050565b5f610d338383610d0c565b9150826002028217905092915050565b610d4c8261097c565b67ffffffffffffffff811115610d6557610d646106b1565b5b610d6f8254610b76565b610d7a828285610cba565b5f60209050601f831160018114610dab575f8415610d99578287015190505b610da38582610d28565b865550610e0a565b601f198416610db986610ba6565b5f5b82811015610de057848901518255600182019150602085019450602081019050610dbb565b86831015610dfd5784890151610df9601f891682610d0c565b8355505b6001600288020188555050505b505050505050565b5f6060820190508181035f830152610e2a81866109be565b9050610e39602083018561096d565b8181036040830152610e4b81846109be565b9050949350505050565b7f4772616465206e6f7420666f756e6400000000000000000000000000000000005f82015250565b5f610e89600f83610986565b9150610e9482610e55565b602082019050919050565b5f6020820190508181035f830152610eb681610e7d565b905091905056fea2646970667358221220785ea6caa66c375d286e6e78ecacbab3bac9107a47c4fc9f9aa21e14ba64ae4d64736f6c63430008180033",
  "linkReferences": {},
  "deployedLinkReferences": {}
}